{
  "contractName": "ethswap",
  "abi": [
    {
      "inputs": [],
      "stateMutability": "nonpayable",
      "type": "constructor"
    },
    {
      "inputs": [],
      "name": "owner",
      "outputs": [
        {
          "internalType": "address",
          "name": "",
          "type": "address"
        }
      ],
      "stateMutability": "view",
      "type": "function",
      "constant": true
    },
    {
      "inputs": [],
      "name": "utokens",
      "outputs": [
        {
          "internalType": "uint256",
          "name": "",
          "type": "uint256"
        }
      ],
      "stateMutability": "view",
      "type": "function",
      "constant": true
    },
    {
      "inputs": [],
      "name": "balance",
      "outputs": [
        {
          "internalType": "uint256",
          "name": "",
          "type": "uint256"
        }
      ],
      "stateMutability": "view",
      "type": "function",
      "constant": true
    },
    {
      "inputs": [
        {
          "internalType": "address",
          "name": "adr",
          "type": "address"
        }
      ],
      "name": "getBalanceOf",
      "outputs": [
        {
          "internalType": "uint256",
          "name": "",
          "type": "uint256"
        }
      ],
      "stateMutability": "view",
      "type": "function",
      "constant": true
    },
    {
      "inputs": [
        {
          "internalType": "address",
          "name": "adr",
          "type": "address"
        },
        {
          "internalType": "uint256",
          "name": "amount",
          "type": "uint256"
        }
      ],
      "name": "purchase",
      "outputs": [
        {
          "internalType": "bool",
          "name": "",
          "type": "bool"
        }
      ],
      "stateMutability": "nonpayable",
      "type": "function"
    },
    {
      "inputs": [
        {
          "internalType": "address",
          "name": "adr",
          "type": "address"
        },
        {
          "internalType": "uint256",
          "name": "amount",
          "type": "uint256"
        }
      ],
      "name": "refund",
      "outputs": [],
      "stateMutability": "payable",
      "type": "function",
      "payable": true
    },
    {
      "inputs": [],
      "name": "fundMe",
      "outputs": [],
      "stateMutability": "payable",
      "type": "function",
      "payable": true
    }
  ],
  "bytecode": "0x6080604052620f424060025534801561001757600080fd5b50336000806101000a81548173ffffffffffffffffffffffffffffffffffffffff021916908373ffffffffffffffffffffffffffffffffffffffff160217905550610837806100676000396000f3fe6080604052600436106100705760003560e01c80639b96eece1161004e5780639b96eece146100f9578063b36b32eb14610136578063b69ef8a814610161578063b6a324e01461018c57610070565b8063410085df146100755780638da5cb5b146100915780638de93222146100bc575b600080fd5b61008f600480360381019061008a91906104e8565b610196565b005b34801561009d57600080fd5b506100a66102db565b6040516100b39190610537565b60405180910390f35b3480156100c857600080fd5b506100e360048036038101906100de91906104e8565b6102ff565b6040516100f0919061056d565b60405180910390f35b34801561010557600080fd5b50610120600480360381019061011b9190610588565b6103f6565b60405161012d91906105c4565b60405180910390f35b34801561014257600080fd5b5061014b61043f565b60405161015891906105c4565b60405180910390f35b34801561016d57600080fd5b50610176610445565b60405161018391906105c4565b60405180910390f35b61019461044d565b005b600066038d7ea4c680009050600082826101b0919061060e565b905082600160008673ffffffffffffffffffffffffffffffffffffffff1673ffffffffffffffffffffffffffffffffffffffff168152602001908152602001600020541061029a5782600160008673ffffffffffffffffffffffffffffffffffffffff1673ffffffffffffffffffffffffffffffffffffffff16815260200190815260200160002060008282546102479190610668565b925050819055508373ffffffffffffffffffffffffffffffffffffffff166108fc829081150290604051600060405180830381858888f19350505050158015610294573d6000803e3d6000fd5b506102d5565b6040517f08c379a00000000000000000000000000000000000000000000000000000000081526004016102cc9061071f565b60405180910390fd5b50505050565b60008054906101000a900473ffffffffffffffffffffffffffffffffffffffff1681565b600060025482116103b557816002546103189190610668565b60028190555081600160008573ffffffffffffffffffffffffffffffffffffffff1673ffffffffffffffffffffffffffffffffffffffff16815260200190815260200160002054610369919061073f565b600160008573ffffffffffffffffffffffffffffffffffffffff1673ffffffffffffffffffffffffffffffffffffffff16815260200190815260200160002081905550600190506103f0565b6040517f08c379a00000000000000000000000000000000000000000000000000000000081526004016103e7906107e1565b60405180910390fd5b92915050565b6000600160008373ffffffffffffffffffffffffffffffffffffffff1673ffffffffffffffffffffffffffffffffffffffff168152602001908152602001600020549050919050565b60025481565b600047905090565b565b600080fd5b600073ffffffffffffffffffffffffffffffffffffffff82169050919050565b600061047f82610454565b9050919050565b61048f81610474565b811461049a57600080fd5b50565b6000813590506104ac81610486565b92915050565b6000819050919050565b6104c5816104b2565b81146104d057600080fd5b50565b6000813590506104e2816104bc565b92915050565b600080604083850312156104ff576104fe61044f565b5b600061050d8582860161049d565b925050602061051e858286016104d3565b9150509250929050565b61053181610474565b82525050565b600060208201905061054c6000830184610528565b92915050565b60008115159050919050565b61056781610552565b82525050565b6000602082019050610582600083018461055e565b92915050565b60006020828403121561059e5761059d61044f565b5b60006105ac8482850161049d565b91505092915050565b6105be816104b2565b82525050565b60006020820190506105d960008301846105b5565b92915050565b7f4e487b7100000000000000000000000000000000000000000000000000000000600052601160045260246000fd5b6000610619826104b2565b9150610624836104b2565b9250817fffffffffffffffffffffffffffffffffffffffffffffffffffffffffffffffff048311821515161561065d5761065c6105df565b5b828202905092915050565b6000610673826104b2565b915061067e836104b2565b925082821015610691576106906105df565b5b828203905092915050565b600082825260208201905092915050565b7f5573657220446f206e6f74206861766520546f6b656e7320746f20726566756e60008201527f6400000000000000000000000000000000000000000000000000000000000000602082015250565b600061070960218361069c565b9150610714826106ad565b604082019050919050565b60006020820190508181036000830152610738816106fc565b9050919050565b600061074a826104b2565b9150610755836104b2565b9250827fffffffffffffffffffffffffffffffffffffffffffffffffffffffffffffffff0382111561078a576107896105df565b5b828201905092915050565b7f4e6f7420656e6f75676820546f6b656e73000000000000000000000000000000600082015250565b60006107cb60118361069c565b91506107d682610795565b602082019050919050565b600060208201905081810360008301526107fa816107be565b905091905056fea2646970667358221220abd4852e0ac88253706476c592446551dd7bb7aeed0b039238f694df40710df364736f6c634300080c0033",
  "immutableReferences": {},
  "source": "// SPDX-License-Identifier: MIT\r\npragma solidity >=0.4.22 <0.9.0;\r\n\r\ncontract ethswap{\r\n    address public owner;\r\n    mapping(address=>uint) balanceof;\r\n    uint public utokens=1000000; // 1 million Tokens\r\n    \r\n constructor(){\r\n     owner = payable(msg.sender);\r\n }   \r\n    \r\nfunction balance()public view returns(uint){\r\nreturn address(this).balance;\r\n}\r\n\r\nfunction getBalanceOf(address adr)public view returns(uint){\r\nreturn balanceof[adr];\r\n}\r\n\r\nfunction purchase(address adr,uint amount)public returns(bool){\r\n    if(amount<=utokens){\r\n\r\n        utokens=utokens-amount;\r\n        balanceof[adr]=balanceof[adr]+amount;\r\n        return true;\r\n    }\r\n    else{\r\n    revert(\"Not enough Tokens\");\r\n//    return false;\r\n    }\r\n\r\n}\r\n//  1000000000000000000\r\nfunction refund(address adr,uint256 amount)public payable{\r\n  uint256 oneUToken=1000000000000000;//wei\r\n  uint256 totalAmount=oneUToken*amount;\r\n  if(balanceof[adr]>=amount){\r\n  balanceof[adr]-=amount;\r\n  payable(adr).transfer(totalAmount);\r\n  }\r\n  else{\r\n      revert(\"User Do not have Tokens to refund\");\r\n  }\r\n\r\n}\r\n\r\nfunction fundMe()external payable { }\r\n\r\n}",
  "sourcePath": "F:\\Dapps\\EthSwap\\truffle\\contracts\\ethswap.sol",
  "compiler": {
    "name": "solc",
    "version": "0.8.12+commit.f00d7308.Emscripten.clang"
  },
  "schemaVersion": "3.4.5",
  "updatedAt": "2022-03-07T16:16:42.120Z",
  "networkType": "ethereum",
  "devdoc": {
    "kind": "dev",
    "methods": {},
    "version": 1
  },
  "userdoc": {
    "kind": "user",
    "methods": {},
    "version": 1
  }
}